S00E00004361724361722E73726563EA
S11300000C9434000C9451000C9451000C94510045
S11300100C9451000C945B040C9451000C9451000A
S11300200C9451000C9451000C9451000C94510008
S11300300C9451000C9451000C9451000C945100F8
S11300400C9451000C9451000C9451000C945100E8
S11300500C945100CE02E202D002D202D402D602A3
S1130060D802DA02DC02DE0211241FBECFE5D8E09A
S1130070DEBFCDBF10E0A0E6B0E0E2E1F6E102C0F1
S113008005900D92AA37B107D9F720E0AAE7B0E0AE
S113009001C01D92AF3CB207E1F70E94D3080C9453
S11300A0070B0C9400001092CB001092CC0010921D
S11300B0CD001092CE0014BC80E488BF89B7806460
S11300C089BF789483E085BD089524B58091CB00E1
S11300D09091CC00A091CD00B091CE00BA2FA92F61
S11300E0982F8827BC01CD01620F711D811D911DC0
S11300F008950E9465000E94E8092DEB37E346E06D
S113010058E30E949E0A089590B79B7F90BFE82F02
S1130110F0E031A1A1E0B0E0062E02C0AA0FBB1F9F
S11301200A94E2F7A0953A23842F90E0AC01062EBE
S113013002C0440F551F0A94E2F7432B41A382A146
S1130140A82330E0C90102C0880F991F6A95E2F71D
S1130150BC016A2B62A30895E82FF0E052A121E0CC
S113016030E0C901062E02C0880F991F0A94E2F7F5
S11301708095852350E09A0102C0220F331F6A95AF
S1130180E2F7B901682B62A30895CF93DF93C82FD8
S1130190882329F080B386FB882780F904C080B3C4
S11301A083FB882780F9811117C0D0E00E94790071
S11301B0FE01EE0FFF1FEE0FFF1FE05AFF4F60839B
S11301C0718382839383FE01E557FF4F8081811100
S11301D020C081E0808320C00E947900D0E0FE012D
S11301E0EE0FFF1FEE0FFF1FE05AFF4F20813181FA
S11301F0428153810E94E6082DEC3CEC4CE45DE323
S11302000E949A0A18163CF4C557DF4F188280E002
S113021003C080E001C080E0DF91CF9108958F9208
S11302209F92AF92BF92CF92DF92EF92FF924B01D7
S11302305C010E9479006B017C010E947900A70196
S113024096010E94E608A50194010E944B098823A7
S1130250A4F3FF90EF90DF90CF90BF90AF909F906A
S11302608F90089520E041E064E080E10E948400E2
S113027020E041E065E080E10E9484001DBC1CBCDC
S11302801BBC1ABC19BC18BC83EA8FBD8AE08EBDA6
S11302900895CF93C62F682F70E080E090E00E940D
S11302A0E80920E030E048EC52E40E944F0920E0E5
S11302B030EC4FE754E40E949E0A0E94BC097BBDC7
S11302C06ABD6C2F70E080E090E00E94E80920E0B5
S11302D030E048EC52E40E944F0920E030EC4FE754
S11302E054E40E949E0A0E94BC0979BD68BDCF9166
S11302F0089585B3836085BB81E080B911B8089502
S1130300E82F94EE96BF06B607FEFDCF91B1987F15
S113031081E0983009F480E0811121C0F0E0EE0F13
S1130320FF1FE3B994EC96BF06B607FEFDCF91B16B
S1130330987F9831B9F418C0F901E91BF109E40F69
S1130340F51F608163B976BF06B607FEFDCF61B1C4
S1130350687F683219F4915079F701C081E094ED17
S113036096BF089581E0FBCF6623C9F3962F262F0D
S113037030E074ECE1CFE82F94EE96BF06B607FEAA
S1130380FDCF91B1987F81E0983009F480E081112C
S11303904CC0F0E0EE0FFF1FE3B994EC96BF06B635
S11303A007FEFDCF91B1987F983109F041C042C05A
S11303B006B607FEFDCF91B1987F983209F041C08F
S11303C03DC006B607FEFDCF91B1987F9031D9F5B7
S11303D03CC006B607FEFDCF91B1987F9034D1F5AD
S11303E03BC0A6BF06B607FEFDCF51B1587F5035BE
S11303F0C9F453B1FB01E91BF109E20FF31F508368
S11304009150913071F72FC006B607FEFDCF91B120
S1130410987F983549F493B1240F311DF901319730
S1130420908303C081E001C081E094ED96BF0895FC
S113043081E0FBCF63B994EC96BFBACF94EE96BF3C
S1130440C0CF81E0F2CF81E0F0CFE160E3B994EC7A
S113045096BFBFCF81E0E9CF423028F0942FA4ECBF
S1130460642F70E0BECF94E896BFCECF82E08BB904
S113047086E880BD8CE089B988E18AB908954F92F5
S11304805F926F927F928F929F92AF92BF92CF9220
S1130490DF92EF92FF920F931F93CF93DF93290183
S11304A03A010F2EFEEACF2EF0E0DF2EF02D0F2EB4
S11304B0F7EBEF2EF0E0FF2EF02DC62FD72F8C0197
S11304C00F2EF0ECAF2EF0E0BF2EF02D4801D80136
S11304D08D918D01F60181936F01DE018991F70100
S11304E081937F0120E041E06C91D4018C910E94C2
S11304F08400EA14FB0451F71092C1001092C0006A
S11305001092C2000E9479006093C3007093C400EB
S11305108093C5009093C600A301920160E070E04F
S113052080E89FE30E944F096093C7007093C8005E
S11305308093C9009093CA00DF91CF911F910F91CE
S1130540FF90EF90DF90CF90BF90AF909F908F90EF
S11305507F906F905F904F900895882331F0E2EC84
S1130560F0E08081816080830895E2ECF0E0808196
S11305708E7F80830895BF92CF92DF92EF92FF9295
S11305800F931F93CF93DF93462F50E04A305105CA
S1130590B8F4FA01E65DFF4F0C94010B9CEF13C015
S11305A09AED11C092EF0FC096E60DC096EB0BC00A
S11305B09EEB09C090EE07C09EEF05C096EF03C006
S11305C092E001C090E68170B92EB82A41E06091B2
S11305D0BE008091B5000E94AC0041E06091BF0074
S11305E08091B6000E94AC000F2EF7EBEF2EF0E0E6
S11305F0FF2EF02D0EEA10E0C7E0D0E0CB2CD12C7A
S1130600F70161917F01A6010C2E02C05595479513
S11306100A94E2F74170F80181918F010E94AC00C5
S1130620219770F74B2D409541706091BF008091E8
S1130630B6000E94AC00DF91CF911F910F91FF9003
S1130640EF90DF90CF90BF9008958091C20080FD1D
S11306500FC041E06091BE008091B5000E94AC00E3
S113066041E06091BF008091B6000E94AC00089503
S113067081FF06C06091C10082E00E94BB0205C0F8
S11306806091C00081E00E94BB02E2ECF0E0908146
S113069082E0892780830895CF93DF9300D0CDB77C
S11306A0DEB781E8898385ED8A83AE014F5F5F4FB2
S11306B062E089E20E9480018FE889831A82AE0198
S11306C04F5F5F4F62E089E20E9480010F900F90BC
S11306D0DF91CF910895CF93DF9300D0CDB7DEB7EC
S11306E080E8898383E08A8366EA7BE984EC9CE37F
S11306F00E940F01AE014F5F5F4F62E089E20E94EA
S113070080010F900F90DF91CF9108950F931F9365
S1130710CF93DF9300D000D000D0CDB7DEB78C01EB
S11307209E012F5F3F4F46E066EB89E20E94BB01CA
S113073081110DC029813A81F801318320832B81F5
S11307403C81338322832D813E8135832483269605
S11307500FB6F894DEBF0FBECDBFDF91CF911F91CE
S11307600F910895FC0120813181828193810A9641
S11307708217930750F444815581465F5F4F81E0AF
S11307804217530718F080E0089580E00895CF934E
S1130790DF9300D0CDB7DEB76FE872EC85EF9CE352
S11307A00E940F018BE6898384E08A83AE014F5F48
S11307B05F4F62E088E60E9480010F900F90DF9106
S11307C0CF9108950F931F93CF93DF9300D0CDB7AC
S11307D0DEB78C019E012F5F3F4F42E067E488E65D
S11307E00E94BB01811125C08A819981BC01655594
S11307F07109882777FD8095982F0E94EA0920E0E7
S113080030E043E053E40E944F092DEB37E346E820
S11308105CE30E949E0A9B01AC01F8016081718136
S1130820828193810E94E708F80160837183828347
S113083093830F900F90DF91CF911F910F910895A3
S1130840CF93DF93D82FC62F88235CF041E064E078
S113085086E10E94AC0040E065E086E10E94AC00C5
S11308600BC040E064E086E10E94AC0041E065E03A
S113087086E10E94AC00D195CC235CF041E066E0B7
S113088086E10E94AC0040E067E086E10E94AC0093
S11308900BC040E066E086E10E94AC0041E067E006
S11308A086E10E94AC00C1956C2F8D2F0E944901F6
S11308B0DF91CF9108951F920F920FB60F921124DA
S11308C02F933F934F935F936F937F938F939F9354
S11308D0AF93BF93EF93FF938091CB009091CC00A3
S11308E0A091CD00B091CE000196A11DB11D8093C1
S11308F0CB009093CC00A093CD00B093CE000E9487
S11309002503809197008230E1F480919F008F5FEE
S113091080939F0080919E008F5F80939E00823021
S113092030F088EA90E00E94E20310929E008091E9
S11309309F00843130F088E990E00E948603109291
S11309409F00FF91EF91BF91AF919F918F917F9104
S11309506F915F914F913F912F910F900FBE0F9028
S11309601F901895CF93DF93CDB7DEB762970FB67C
S1130970F894DEBF0FBECDBF0E94530021E040E0DB
S113098063E086E10E94840021E040E066E083E1C8
S11309900E94840021E040E063E080E10E94840042
S11309A021E040E066E080E10E94840020E041E034
S11309B062E086E10E94840020E041E064E086E198
S11309C00E94840020E041E065E086E10E9484000A
S11309D020E041E066E086E10E94840020E041E0FE
S11309E067E086E10E9484000E94320160E080E0BA
S11309F00E9420040E9479010E94360289E0E8E600
S1130A00F0E0DE01119601900D928A95E1F789E0FC
S1130A10E1E7F0E0DE011A9601900D928A95E1F784
S1130A2020E030E048EC52E4BE01665F7F4FCE0127
S1130A3001960E943F020E944C030E946B030E9495
S1130A40C70362960FB6F894DEBF0FBECDBFDF9129
S1130A50CF91089560E080E00E94200440E062E0CD
S1130A6086E10E94AC0080E00E94C500882399F1D1
S1130A7082E0809397008091A8009091A900A091B2
S1130A80AA00B091AB008093A0009093A100A09322
S1130A90A200B093A3001092AC001092AD0010928B
S1130AA08D0010928E0010928F0010929000109280
S1130AB091001092920041E062E086E10E94AC0055
S1130AC00E94790060939300709394008093950042
S1130AD090939600089581E00E94C500882369F0F0
S1130AE081E0809397000E94790060939300709353
S1130AF09400809395009093960008950F931F930C
S1130B00CF93DF9381E00E94AD0280918D0081112B
S1130B101EC08AE08093C0008093C1000E947900C7
S1130B20209193003091940040919500509196004B
S1130B300E94E60820E030E040E85FE30E944B09B1
S1130B4088232CF481E00E94C500882339F3109295
S1130B50AC0000EC10E0C1ECD0E02EC08630A9F16E
S1130B608F5FF8018083988381E00E94C500811122
S1130B702CC00E9479002091930030919400409100
S1130B809500509196000E94E60820E030E040E88D
S1130B905FE30E949A0A88237CF00E9479006093A4
S1130BA093007093940080939500909396008091A5
S1130BB0AC008F5F8093AC008091AC00E82FF0E034
S1130BC0E357FF4F90819111C9CF1092970080E0B5
S1130BD00E94AD02DF91CF911F910F910895CF92A2
S1130BE0DF92EF92FF920F931F93CF93DF932091A5
S1130BF0A0003091A1004091A2005091A300609107
S1130C00A8007091A9008091AA009091AB000E9465
S1130C10E6086093A4007093A5008093A6009093C7
S1130C20A70080E00E94C500811104C08091AC003F
S1130C30873061F41092970010928A001092860017
S1130C401092870010928800109289000E94790007
S1130C50209182003091830040918400509185005E
S1130C600E94E60820E030E040E85FE30E949A0A30
S1130C7018162CF480918A008C7F80938A00C0918E
S1130C808A008C2F8C70B9F4D091AC00DD2399F0DC
S1130C9088E990E00E94B203882369F0E091AD00F6
S1130CA081E08E0F8093AD00F0E0E357FF4FD083D7
S1130CB0C860C0938A0010918A0014FF8DC080918F
S1130CC0A4009091A500A091A600B091A7008093E4
S1130CD0860090938700A0938800B09389000E94B7
S1130CE07900C0907E00D0907F00E0908000F0906A
S1130CF08100A70196010E94E60823E333E343E35E
S1130D005FE30E944B0988230CF4C7C116FF30C06F
S1130D100E947900A70196010E94E60820E030E0D5
S1130D2040E05FE30E944B0988230CF4B9C10E94A0
S1130D307900A70196010E94E60820E030E040E82F
S1130D405FE30E944B0988230CF4ADC11F7E10930E
S1130D508A0080E090E0A4EBB2E480938600909354
S1130D608700A0938800B0938900D8E2C8E2B5C197
S1130D702091A4003091A5004091A6005091A700B5
S1130D8060E070E084EB92E40E94E6086B017C0171
S1130D9020E030E040E450E40E944B0988230CF04A
S1130DA085C120E030E040E450ECC701B6010E9468
S1130DB09A0A18160CF07DC1106410938A000E94E0
S1130DC0790060937E0070937F00809380009093FD
S1130DD08100D8EDC8ED81C115FF8DC08091A400BC
S1130DE09091A500A091A600B091A70080938600E1
S1130DF090938700A0938800B09389000E947900A3
S1130E00C0907E00D0907F00E0908000F090810040
S1130E10A70196010E94E60823E333E343E35FE37B
S1130E200E944B0988230CF447C1112384F50E94C6
S1130E307900A70196010E94E60820E030E040E036
S1130E405FE30E944B0988230CF439C10E947900A6
S1130E50A70196010E94E60820E030E040E85FE345
S1130E600E944B0988230CF42DC11F7E10938A0025
S1130E7080E090E0A4EBB2E4809386009093870036
S1130E80A0938800B0938900D8E2C8E226C12091DB
S1130E90A4003091A5004091A6005091A70060E005
S1130EA070E084E393E40E94E6086B017C0120E097
S1130EB030E040E450E40E944B0988230CF005C163
S1130EC020E030E040E450ECC701B6010E949A0AE9
S1130ED018160CF0FDC0106810938A000E94790067
S1130EE060937E0070937F008093800090938100D4
S1130EF0D8EDC8EDF2C00E94790020917A003091BB
S1130F007B0040917C0050917D000E94E60820E027
S1130F1030E040E05FE30E949A0A18160CF0ACC07F
S1130F2080E00E94AD0212FF08C08091AC008F5F88
S1130F308093AC00107F10938A00B39B49C0C0918A
S1130F408A00C1FF38C0DC2FDC7FD0938A008091F7
S1130F50AC00833081F4C6FD20C0D061D0938A00F8
S1130F600E94790060937E0070937F0080938000DC
S1130F70909381002DC0843081F4DD2374F0D0621D
S1130F80D0938A000E94790060937E0070937F0062
S1130F9080938000909381001BC00E94790060932D
S1130FA07A0070937B0080937C0090937D00D460E2
S1130FB0D0938A000DC00E947900609382007093E0
S1130FC083008093840090938500C160C0938A005D
S1130FD09E9B81C0C0918A00C0FF3EC0DC2FDC7F95
S1130FE0D0938A008091AC00833091F4C6FD24C074
S1130FF0D061D0938A000E94790060937E00709340
S11310007F008093800090938100D8E2C8E265C09D
S1131010843091F4DD2384F0D062D0938A000E945E
S1131020790060937E0070937F008093800090939A
S11310308100D8E2C8E251C00E94790060937A002E
S113104070937B0080937C0090937D00D460D09358
S11310508A00D8E2C8E241C00E947900609382000D
S1131060709383008093840090938500C260C09342
S11310708A00D8E2C8E231C081E00E94AD028091CA
S1131080AC008F5F8093C0008AE08093C1001C7F16
S113109010938A00D8E2C8E220C0D8EDC8ED1DC084
S11310A0D0E0C0E01AC0D8EDC8ED17C0D8E2C8ED52
S11310B014C0D8E2C8ED11C0D8EDC8ED0EC0D0E020
S11310C0C0E00BC0D8EDC8ED08C0D8E2C8ED05C03B
S11310D0D8E2C8ED02C0D8E2C8E280918A0080FF5D
S11310E00FC020E030E040EA51E460918600709146
S11310F0870080918800909189000E94E60819C0B9
S113110081FF0FC020E030E040EA51E460918600A6
S11311107091870080918800909189000E94E7086F
S113112008C060918600709187008091880090913A
S113113089002091A4003091A5004091A60050910F
S1131140A7000E94E60820E030E040EC5FE30E9444
S11311509E0A0E94B709462F572F682F792F413FC7
S11311608FEF58076807780724F441EF5FEF6FEFBC
S11311707FEF8A019B01403151056105710524F01F
S11311800FE010E020E030E06D2F600F8C2F801B0B
S11311900E942004DF91CF911F910F91FF90EF9057
S11311A0DF90CF9008950E94B2048091970081113E
S11311B003C00E942A05F9CF813019F40E947E05EC
S11311C0F4CF823091F70E94EF05EFCF5058BB2740
S11311D0AA270ED075C166D130F06BD120F031F45E
S11311E09F3F11F41EF45BC10EF4E095E7FB51C17F
S11311F0E92F77D180F3BA1762077307840795073D
S113120018F071F49EF58FC10EF4E0950B2EBA2FF1
S1131210A02D0B01B90190010C01CA01A0011124F8
S1131220FF27591B99F0593F50F4503E68F11A16A4
S1131230F040A22F232F342F4427585FF3CF469535
S113124037952795A795F0405395C9F77EF41F1657
S1131250BA0B620B730B840BBAF09150A1F0FF0F21
S1131260BB1F661F771F881FC2F70EC0BA0F621F0D
S1131270731F841F48F4879577956795B795F795FD
S11312809E3F08F0B3CF9395880F08F09927EE0F8F
S1131290979587950895D9D008F481E008950CD0E6
S11312A00FC107D140F0FED030F021F45F3F19F0B8
S11312B0F0C0511139C1F3C014D198F39923C9F383
S11312C05523B1F3951B550BBB27AA276217730748
S11312D0840738F09F5F5F4F220F331F441FAA1FFC
S11312E0A9F333D00E2E3AF0E0E830D091505040BC
S11312F0E695001CCAF729D0FE2F27D0660F771F6A
S1131300881FBB1F261737074807AB07B0E809F04B
S1131310BB0B802DBF01FF2793585F4F2AF09E3FE0
S1131320510568F0B6C000C15F3FECF3983EDCF3B2
S1131330869577956795B795F7959F5FC9F7880F59
S1131340911D9695879597F90895E1E0660F771FAB
S1131350881FBB1F621773078407BA0720F0621B3C
S1131360730B840BBA0BEE1F88F7E095089504D035
S11313706894B111D9C00895BCD088F09F5790F0FB
S1131380B92F9927B751A0F0D1F0660F771F881FA6
S1131390991F1AF0BA95C9F712C0B13081F0C3D0C1
S11313A0B1E00895C0C0672F782F8827B85F39F05F
S11313B0B93FCCF3869577956795B395D9F73EF405
S11313C090958095709561957F4F8F4F9F4F0895AD
S11313D0E89409C097FB3EF49095809570956195CB
S11313E07F4F8F4F9F4F9923A9F0F92F96E9BB2781
S11313F09395F695879577956795B795F111F8CFFD
S1131400FAF4BB0F11F460FF1BC06F5F7F4F8F4F67
S11314109F4F16C0882311F096E911C0772321F05D
S11314209EE8872F762F05C0662371F096E8862FF5
S113143070E060E02AF09A95660F771F881FDAF74C
S1131440880F9695879597F90895990F0008550F79
S1131450AA0BE0E8FEEF16161706E807F907C0F036
S113146012161306E407F50798F0621B730B840B3E
S1131470950B39F40A2661F0232B242B252B21F418
S113148008950A2609F4A140A6958FEF811D811DB8
S1131490089597F99F6780E870E060E008959FEFF2
S11314A080EC089500240A941616170618060906F7
S11314B0089500240A9412161306140605060895C6
S11314C0092E0394000C11F4882352F0BB0F40F44E
S11314D0BF2B11F460FF04C06F5F7F4F8F4F9F4F8E
S11314E0089557FD9058440F551F59F05F3F71F010
S11314F04795880F97FB991F61F09F3F79F0879577
S11315000895121613061406551FF2CF4695F1DFFF
S113151008C0161617061806991FF1CF869571058F
S1131520610508940895E894BB2766277727CB01C3
S113153097F908958ADF08F48FEF08950BD0C0CF90
S1131540B1DF28F0B6DF18F0952309F0A2CFA7CFBA
S11315501124EACFC6DFA0F3959FD1F3950F50E095
S1131560551F629FF001729FBB27F00DB11D639F51
S1131570AA27F00DB11DAA1F649F6627B00DA11DF7
S1131580661F829F2227B00DA11D621F739FB00D9D
S1131590A11D621F839FA00D611D221F749F33270D
S11315A0A00D611D231F849F600D211D822F762FA6
S11315B06A2F11249F5750408AF0E1F088234AF0A3
S11315C0EE0FFF1FBB1F661F771F881F91505040EF
S11315D0A9F79E3F510570F05CCFA6CF5F3FECF3B7
S11315E0983EDCF3869577956795B795F795E795DB
S11315F09F5FC1F7FE2B880F911D9695879597F9EC
S11316000895EE0FFF1F0590F491E02D0994F894CE
S1051610FFCF06
S1131612000080BF000080BF19191919191919197E
S10D16221300010203040506070784
S9030000FC
