:100000000C942A000C943C000C943C000C943C0092
:100010000C943C000C943C000C943C000C943C0070
:100020000C943C000C944E000C943C000C943C004E
:100030000C943C000C943C000C943C000C943C0050
:100040000C943C000C943C000C943C000C943C0040
:100050000C943C0011241FBECFE5D8E0DEBFCDBF1D
:1000600020E0A0E6B0E001C01D92AF37B207E1F793
:100070000E9426010C9459030C94000010927E00FB
:1000800010927D001DBC1CBC84E088BF89B78460D1
:1000900089BF78941FBC83E08EBD08951F920F9294
:1000A0000FB60F9211248F939F9380917D009091B2
:1000B0007E00019690937E0080937D009F918F91AA
:1000C0000F900FBE0F901F9018952CB53DB5609105
:1000D0007D0070917E00CB01A0E0B0E0DC019927AB
:1000E0008827BC01CD01620F731F811D911D0E94E5
:1000F00044022DEB37E346E858E30E94F6020895E8
:1001000090B79B7F90BFE82FF0E031A1A1E0B0E075
:10011000062E02C0AA0FBB1F0A94E2F7A0953A234D
:10012000842F90E0AC01062E02C0440F551F0A94A4
:10013000E2F7432B41A382A1A82330E0C90102C00A
:10014000880F991F6A95E2F7BC016A2B62A3089594
:10015000E82FF0E052A121E030E0C901062E02C0F4
:10016000880F991F0A94E2F78095852350E09A0141
:1001700002C0220F331F6A95E2F7B901682B62A310
:1001800008958F929F92AF92BF92CF92DF92EF929B
:10019000FF924B015C010E9465006B017C010E9493
:1001A0006500A70196010E94DB01A50194010E9450
:1001B00040028823A4F3FF90EF90DF90CF90BF9090
:1001C000AF909F908F900895CF9361157105D9F0EE
:1001D00020E030E0A0E0C4E0B6E0E199FECFF90114
:1001E000E80FF91FFFBBEEBBFA01E20FF31F2081FE
:1001F0002DBBF894CCBBBCBB7894AF5F2A2F30E00A
:100200002617370750F3CF910895CF93DF936115E9
:100210007105C9F020E030E0A0E0B1E0E199FECF47
:10022000F901E80FF91FFFBBEEBBF894BCBB789453
:10023000EDB3EA01C20FD31FE883AF5F2A2F30E08E
:100240002617370758F3DF91CF910895CF93DF93A7
:10025000CDB7DEB760970FB6F894DEBF0FBECDBF47
:100260000E943E0021E040E060E089E10E948000C1
:1002700021E040E061E089E10E94800020E041E06F
:1002800062E089E10E94800020E041E063E089E1D2
:100290000E94800020E041E064E089E10E9480004B
:1002A00086EB93EFADE9BFE389839A83AB83BC838D
:1002B0001D821E821F82188683E393E3A9ECB2E4B9
:1002C00089879A87AB87BC871D861E861F86188AFA
:1002D000C89923C041E062E089E10E94A800AE0114
:1002E0004F5F5F4F64E070E085E190E00E94E400C2
:1002F000AE01475F5F4F64E070E089E190E00E94EB
:10030000E40060E070E080E89FE30E94C10040E00C
:1003100062E089E10E94A80024C0C99922C041E09E
:1003200062E089E10E94A800AE014B5F5F4F64E08C
:1003300070E085E190E00E940501AE01435F5F4FF0
:1003400064E070E089E190E00E94050160E070E007
:1003500080E89FE30E94C10040E062E089E10E94E2
:10036000A8002D813E814F8158856D857E858F85C2
:1003700098890E94DB016B017C0129813A814B81C4
:100380005C8169857A858B859C850E94DB019B0158
:10039000AC01C701B6010E944002811106C041E0D4
:1003A00063E089E10E94A80093CF40E063E089E127
:1003B0000E94A8008DCF5058BB27AA270ED0DCC0C2
:1003C000CDD030F0D2D020F031F49F3F11F41EF4A4
:1003D000C2C00EF4E095E7FBB8C0E92FDED080F391
:1003E000BA17620773078407950718F071F49EF532
:1003F000F6C00EF4E0950B2EBA2FA02D0B01B9011B
:1004000090010C01CA01A0011124FF27591B99F08A
:10041000593F50F4503E68F11A16F040A22F232F96
:10042000342F4427585FF3CF469537952795A795E6
:10043000F0405395C9F77EF41F16BA0B620B730B8D
:10044000840BBAF09150A1F0FF0FBB1F661F771FFE
:10045000881FC2F70EC0BA0F621F731F841F48F4B3
:10046000879577956795B795F7959E3F08F0B3CF39
:100470009395880F08F09927EE0F97958795089523
:1004800040D008F481E00895E89409C097FB3EF459
:1004900090958095709561957F4F8F4F9F4F9923D1
:1004A000A9F0F92F96E9BB279395F695879577954F
:1004B0006795B795F111F8CFFAF4BB0F11F460FF0F
:1004C0001BC06F5F7F4F8F4F9F4F16C0882311F067
:1004D00096E911C0772321F09EE8872F762F05C07B
:1004E000662371F096E8862F70E060E02AF09A9516
:1004F000660F771F881FDAF7880F9695879597F90B
:100500000895990F0008550FAA0BE0E8FEEF1616A4
:100510001706E807F907C0F012161306E407F507F7
:1005200098F0621B730B840B950B39F40A2661F06B
:10053000232B242B252B21F408950A2609F4A1400E
:10054000A6958FEF811D811D089597F99F6780E81B
:1005500070E060E008959FEF80EC089500240A9415
:100560001616170618060906089500240A9412168E
:100570001306140605060895092E0394000C11F4C1
:10058000882352F0BB0F40F4BF2B11F460FF04C06E
:100590006F5F7F4F8F4F9F4F089557FD9058440FC7
:1005A000551F59F05F3F71F04795880F97FB991FD2
:1005B00061F09F3F79F0879508951216130614068F
:1005C000551FF2CF4695F1DF08C01616170618061C
:1005D000991FF1CF86957105610508940895E894F7
:1005E000BB2766277727CB0197F908950BD0C4CF97
:1005F000B5DF28F0BADF18F0952309F0A6CFABCF0E
:100600001124EECFCADFA0F3959FD1F3950F50E0F0
:10061000551F629FF001729FBB27F00DB11D639FB4
:10062000AA27F00DB11DAA1F649F6627B00DA11D5A
:10063000661F829F2227B00DA11D621F739FB00D00
:10064000A11D621F839FA00D611D221F749F332770
:10065000A00D611D231F849F600D211D822F762F09
:100660006A2F11249F5750408AF0E1F088234AF006
:10067000EE0FFF1FBB1F661F771F881F9150504052
:10068000A9F79E3F510570F060CFAACF5F3FECF312
:10069000983EDCF3869577956795B795F795E7953E
:1006A0009F5FC1F7FE2B880F911D9695879597F94F
:0606B0000895F894FFCF4D
:00000001FF
